:020000040800F2
:100000000080002011120008B1110008B31100088F
:10001000B5110008B7110008B91100080000000070
:10002000000000000000000000000000BB110008FC
:10003000BD11000800000000BF110008C111000838
:1000400061120008611200086112000861120008C4
:1000500061120008611200086112000861120008B4
:1000600061120008611200086112000861120008A4
:100070006112000861120008611200086112000894
:1000800061120008611200086112000800000000FF
:1000900000000000000000000000000061120008E5
:1000A0006112000861120008611200086112000864
:1000B00000000000000000000000000061120008C5
:1000C0006112000861120008611200086112000844
:1000D00061120008611200086112000800000000AF
:1000E000611200086112000800000000000000001A
:1000F0000000000000000000000000006112000885
:100100000000000000000000611200080000000074
:100110000000000000000000611200080000000064
:1001200061120008611200086112000861120008E3
:100130006112000800000000000000000000000044
:1001400000000000000000000000000000000000AF
:1001500061120008611200086112000861120008B3
:10016000000000000000000000000000000000008F
:10017000000000000000000000000000000000007F
:100180006112000861120008000000000000000079
:1001900000000000611200080000000000000000E4
:1001A000000000000000000000000000000000004F
:1001B00000000000000000000000000061120008C4
:0801C000611200086112000841
:1001C80010B5054C237833B9044B13B10448AFF389
:1001D80000800123237010BD0C00002000000000E7
:1001E800BC12000808B5034B1BB103490348AFF321
:1001F800008008BD0000000010000020BC120008AC
:1002080053B94AB9002908BF00281CBF4FF0FF3175
:100218004FF0FF3000F072B9ADF1080C6DE904CE73
:1002280000F006F8DDF804E0DDE9022304B07047C9
:100238002DE9F047089E04468846002B4BD18A4298
:10024800154667D9B2FA82F24AB1C2F1200701FA1B
:1002580002F320FA07F7954047EA030894404FEA6B
:10026800154E230CB8FBFEF71FFA85FC0EFB17880A
:1002780043EA084307FB0CF1994209D9EB1807F147
:10028800FF3080F01B81994240F21881023F2B44D5
:100298005B1AA4B2B3FBFEF00EFB103344EA03442E
:1002A80000FB0CFCA44509D92C1900F1FF3380F0A0
:1002B8000781A44540F2048102382C4440EA0740F3
:1002C800A4EB0C0400271EB1D4400023C6E9004368
:1002D8003946BDE8F0878B4209D9002E00F0EB8043
:1002E8000027C6E9000138463946BDE8F087B3FA69
:1002F80083F7002F47D18B4202D3824200F2FA8063
:10030800841A61EB030301209846002EE0D0C6E969
:100318000048DDE702B9FFDEB2FA82F2002A40F0B7
:100328008F80491B4FEA154E1FFA85F80127B1FB4C
:10033800FEFC230C0EFB1C1143EA014308FB0CF1E5
:10034800994207D9EB180CF1FF3002D2994200F21A
:10035800CD808446591AA3B2B1FBFEF00EFB1014EF
:1003680043EA044408FB00F8A04507D92C1900F11A
:10037800FF3302D2A04500F2B6801846A4EB080469
:1003880040EA0C409FE7C7F1200CBB4022FA0CFE64
:100398004EEA030E01FA07F420FA0CF521FA0CF3E1
:1003A8004FEA1E482543B3FBF8F92C0C08FB193318
:1003B8001FFA8EFA44EA034309FB0AF49C4202FA44
:1003C80007F200FA07F10BD91EEB030309F1FF301E
:1003D80080F087809C4240F28480A9F1020973442E
:1003E8001B1BADB2B3FBF8F008FB103345EA03441E
:1003F80000FB0AFAA24508D91EEB040400F1FF33FA
:100408006BD2A24569D90238744440EA0940A0FB7E
:100418000289A4EB0A044C45C2464B4654D351D03A
:10042800002E69D0B1EB0A0564EB030404FA0CFC56
:10043800FD40FC404CEA0505C6E90054002747E7A3
:10044800C2F1200320FA03F7954001FA02F021FADD
:1004580003F34FEA154E3843010CB3FBFEF71FFABE
:1004680085F80EFB173341EA034107FB08F38B427B
:1004780004FA02F407D9691807F1FF3C2FD28B421E
:100488002DD9023F2944CB1A81B2B3FBFEF00EFBF3
:10049800103341EA034100FB08F38B4207D969187E
:1004A80000F1FF3C17D28B4215D902382944C91AEA
:1004B80040EA07473BE73746304609E70746E7E69D
:1004C8001846FBE64145ABD2B8EB020A69EB0E02CF
:1004D80001381346A4E76046E9E7184695E76746FA
:1004E800D1E781467CE702382C4447E7ACF1020C9F
:1004F8002B442FE7384608E73746E9E6704700BF40
:1005080038B50E4A0E4B054618784FF47A73B3FB8C
:10051800F0F31068B0FBF3F000F09CF8044658B90B
:100528000F2D09D8024629464FF0FF3000F05EF83B
:10053800044B20461D6038BD0120FCE70800002060
:10054800000000200400002008B50B4B1A6842F494
:1005580000721A601A6842F480621A601A6842F4DB
:1005680080721A60032000F02FF80020FFF7C8FF00
:1005780000F0C4FD002008BD003C0240034A044BC3
:1005880011681B780B441360704700BF28000020D7
:1005980000000020014B1868704700BF28000020A9
:1005A80038B50446FFF7F6FF631C1CBF054B1B78E4
:1005B800054618BFE418FFF7EDFF401BA042FAD329
:1005C80038BD00BF00000020074AD36823F4E06369
:1005D8001B041B0C43F0BF63000243F4003300F418
:1005E800E0600343D360704700ED00E0174B70B53F
:1005F800DC68C4F30224C4F10705042D04F10403E4
:1006080028BF04254FF0FF36062B06FA05F38CBFEA
:10061800033C002421EA0303A34006FA04F422EA77
:100628000404002843EA0403A8BF00F160404FEA2D
:100638000313BCBF00F00F00054ADBB2AABF00F5E8
:100648006140135480F8003370BD00BF00ED00E036
:1006580014ED00E00138B0F1807F0AD2064B074A5A
:100668005860F02182F823100020072298601A6051
:1006780070470120704700BF10E000E000ED00E087
:100688002DE9F04F85B00B68DFF86881574A019370
:100698004FF001090023019C09FA03FA04EA0A054C
:1006A800AA4540F097804C6824F0100BBBF1020F6C
:1006B80014D14FEAD30C00EB8C0C03F0070EDCF8D6
:1006C80020604FEA8E0E0F2707FA0EF726EA070773
:1006D8000E6906FA0EF63E43CCF820604FEA430E48
:1006E8000327066807FA0EF7FF4304F0030C3E40A1
:1006F8000CFA0EFC0BF1FF3B4CEA0606BBF1010FAE
:10070800066011D8866806EA070BCE6806FA0EFC62
:100718004CEA0B068660466826EA0A0AC4F3001605
:100728009E4046EA0A064660C66837408E6806FA62
:100738000EF63743E600C7604CD500260396D8F876
:10074800446046F48046C8F84460D8F8446023F012
:10075800030707F1804706F4804607F59C370396A0
:1007680003F0030E039EBE684FEA8E0E4FF00F0C87
:100778000CFA0EFC26EA0C0C1D4EB04231D006F5E0
:100788008066B0422FD006F58066B04214BF0726B7
:10079800022606FA0EF646EA0C06BE601668EF4315
:1007A80014F4803F0CBF3E402E431660566814F484
:1007B800003F0CBF3E402E435660966814F4801FDD
:1007C8000CBF3E402E439660D668A40254BF3E40FC
:1007D8002E43D6600133102B7FF45DAF05B0BDE822
:1007E800F08F0026D5E70126D3E700BF003C014083
:1007F80000000240003802400AB1816170470904D4
:10080800FBE70000134908B58B6803F00C03042BC1
:1008180003D0082B03D0104800E0104808BD4A68F0
:100828004B68496813F4800314BF0C480A48C1F3A5
:10083800881118BF002302F03F02A1FB0001FFF757
:10084800DFFC044B5B68C3F3014301335B00B0FB7F
:10085800F3F0E3E7003802400024F40000127A00C5
:100868002DE9F0410D46044610B90120BDE8F0819C
:10087800434B1A6802F00F028A4227D321688F0778
:100888002CD4C8073FD43E4B1A6802F00F02AA4284
:1008980064D8226851076AD4130707D5394A2169F1
:1008A800936823F4604343EAC1039360FFF7AAFF08
:1008B800344B354A9B68C3F30313D35CD840334B9E
:1008C80018600020FFF71CFE0020CFE7CAB21A709C
:1008D8001B6803F00F038B42C7D1CFE7294B11F0F8
:1008E800040F1EBF9A6842F4E0529A600E0742BF96
:1008F8009A6842F460429A609A68A06822F0F0020E
:1009080002439A60BDE762681E4B012A1CD11B682E
:1009180013F4003FA9D01B4EB36823F0030313431D
:10092800B360FFF737FE41F288380746B36862685C
:1009380003F00C03B3EB820FA5D0FFF72BFEC01B0F
:100948004045F3D9032091E7911E01291B6802D87D
:1009580013F0007FDEE713F0020FDBE7EAB21A704C
:100968001B6803F00F03AB427FF47FAF91E70549A3
:10097800E0688B6823F4E05303438B608CE700BF87
:10098800003C024000380240D41200080800002051
:10099800044B054A9B68C3F38223D35C034A10685F
:1009A800D840704700380240E412000808000020D0
:1009B800044B054A9B68C3F34233D35C034A10686F
:1009C800D840704700380240E412000808000020B0
:1009D80003682DE9F341DD07044610D4236898071E
:1009E8005BD423681A0700F19D8023685B0700F138
:1009F800BB80A269002A40F01C81002015E0A74BAB
:100A08009A6802F00C02042A07D09A6802F00C02D5
:100A1800082A0DD15B6859020AD5A04B1B689A03B6
:100A2800DCD56368002BD9D1012002B0BDE8F08184
:100A380063689A4DB3F5803F11D12B6843F4803336
:100A48002B60FFF7A7FD954D06462B689B03C5D481
:100A5800FFF7A0FD801B6428F7D90320E5E7B3F56D
:100A6800A02F04D12B6843F480232B60E5E72A6884
:100A780022F480322A602A6822F480222A60002B1D
:100A8800DFD1FFF787FD06462B689F03A6D5FFF742
:100A980081FD801B6428F7D9DFE7804B9A6812F044
:100AA8000C0F07D09A6802F00C02082A11D15B6873
:100AB8005E020ED4794B1A68950702D5E268012ABE
:100AC800B2D11A68216922F0F80242EAC1021A601A
:100AD80087E7E268724BB2B101221A60FFF75AFD4C
:100AE8006E4D06462B68980707D52B68226923F0B8
:100AF800F80343EAC2032B6073E7FFF74BFD801B43
:100B08000228EFD9A9E71A60FFF744FD634D0646AE
:100B18002B6899077FF565AFFFF73CFD801B02281E
:100B2800F6D99AE762695F4B7AB101221A60FFF73A
:100B380031FD5A4D06466B6F9F073FF556AFFFF7DD
:100B480029FD801B0228F6D987E71A60FFF722FDE6
:100B5800524D06466B6F98077FF547AFFFF71AFDB2
:100B6800801B0228F6D978E74C4B1A6C12F0805299
:100B780028D101921A6C42F080521A641B6C03F05F
:100B880080530193019B0126474D2B68D9051BD53E
:100B9800A368424D012B27D12B6F43F001032B672C
:100BA800FFF7F8FC3D4D074641F288382B6F9B074D
:100BB80039D5002E3FF41DAF384A136C23F080530B
:100BC800136416E70026DFE72B6843F480732B6075
:100BD800FFF7E0FC07462B68DA05D9D4FFF7DAFC03
:100BE800C01B0228F7D938E7052B04D12B6F43F037
:100BF80004032B67D0E72A6F22F001022A672A6FC5
:100C080022F004022A67002BCAD1FFF7C3FC41F285
:100C1800883807462B6F9807CBD5FFF7BBFCC01B5E
:100C28004045F7D919E7FFF7B5FCC01B4045BDD9CA
:100C380013E71A4DAB6803F00C03082B3FF4F4AE2E
:100C48001A4E0023022A336038D1FFF7A3FC074667
:100C58002B6899012CD4D4E907321343626A43EA1A
:100C68008213E26A43EA0263226B43EA0273A26ACE
:100C78000A4C5208013A43EA02436B60012333608D
:100C8800FFF788FC054623689A013FF5B6AEFFF7E3
:100C980081FC401B0228F6D9DFE600BF003802407D
:100CA80000004742800E4742007000406000474203
:100CB800FFF770FCC01B0228CAD9CEE6FFF76AFC12
:100CC80004462B689B017FF598AEFFF763FC001B79
:100CD8000228F6D9C1E600BF2DE9F8430368C168C8
:100CE8001A69044622F440520A431A612569A26827
:100CF800D968C0692A43656921F416412A4321F05D
:100D08000C0102430A43DA605A69A16922F440726D
:100D18000A43B0F5004F5A617A4A7BD1934203D017
:100D280002F58062934244D1FFF742FE67681925B5
:100D38004FF0640805FB00F37F00B3FBF7F3B3FB48
:100D4800F8F31F01FFF734FE636868435B00B0FBEC
:100D5800F3F6FFF72DFE636868435B00B0FBF3F31F
:100D6800B3FBF8F308FB1363DB003233B3FBF8F390
:100D78005B0003F4F876FFF71BFE626868435200D5
:100D8800B0FBF2F9FFF714FE6368226868435B0062
:100D9800B0FBF3F3B3FBF8F308FB1393DB00323338
:100DA800B3FBF8F303F007033B4433449360BDE817
:100DB800F883FFF7EDFD676819254FF0640805FB18
:100DC80000F37F00B3FBF7F3B3FBF8F31F01FFF762
:100DD800DFFD636868435B00B0FBF3F6FFF7D8FDFF
:100DE800636868435B00B0FBF3F3B3FBF8F308FBFD
:100DF8001363DB003233B3FBF8F35B0003F4F876DC
:100E0800FFF7C6FD626868435200B0FBF2F9FFF7CE
:100E1800BFFDB9E7934202D03B4A934241D1FFF765
:100E2800C7FD676819254FF0640805FB00F3BF008C
:100E3800B3FBF7F3B3FBF8F31F01FFF7B9FD6368E2
:100E480068439B00B0FBF3F6FFF7B2FD63686843A5
:100E58009B00B0FBF3F3B3FBF8F308FB13631B0130
:100E68003233B3FBF8F303F0F006FFF7A1FD626835
:100E780068439200B0FBF2F9FFF79AFD63682268B5
:100E880068439B00B0FBF3F3B3FBF8F308FB139341
:100E98001B013233B3FBF8F303F00F0333433B4436
:100EA80084E7FFF775FD676819254FF0640805FBAF
:100EB80000F3BF00B3FBF7F3B3FBF8F31F01FFF731
:100EC80067FD636868439B00B0FBF3F6FFF760FDBE
:100ED800636868439B00B0FBF3F3B3FBF8F308FBCC
:100EE80013631B013233B3FBF8F303F0F006FFF78B
:100EF8004FFD626868439200B0FBF2F9FFF748FDC6
:100F0800BCE700BF001001400014014010B50446C2
:100F180040B390F8393003F0FF021BB980F838204D
:100F280000F00AF92268242384F83930D36823F4BE
:100F38000053D3602046FFF7CFFE23681A6922F4D6
:100F480090421A615A6922F02A025A61DA6842F418
:100F58000052DA6000202023E06384F8393084F8F6
:100F68003A3010BD0120FCE730B5142495B0224674
:100F7800002108A800F096F92246002102A800F0F6
:100F880091F900251B4B00951A6C42F080521A64A7
:100F98001B6C03F080530093009B174B01951A6854
:100FA80042F440421A601B6803F440430193012253
:100FB800019B10230224CDE90A230F934FF4A87153
:100FC800042307A8CDE91013CDE912340794CDE91D
:100FD8000D45FFF7FDFC0F23CDE9023421464FF400
:100FE800805302A80495CDE90535FFF739FC15B003
:100FF80030BD00BF003802400070004000B58BB023
:10100800FFF7A2FAFFF7B0FF142200210DEB020050
:1010180000F048F90024334B01941A6B324842F02F
:1010280004021A631A6B02F004020192019A0294F4
:101038001A6B42F080021A631A6B02F08002029265
:10104800029A03941A6B42F001021A631A6B02F0B7
:1010580001020392039A04941A6B42F002021A6383
:101068001B6B03F00203224604932021049BFFF725
:10107800C3FB1E4B1E4807944FF4005205A9CDE947
:101088000523FFF7FDFA01232021CDE905131648B2
:1010980005A9CDE90744FFF7F3FA1648DFF858C069
:1010A80004614FF4E133C0E900C30C23C0E90244F2
:1010B800C0E90534C461FFF729FF0B4C0122202148
:1010C8002046FFF799FB4FF4FA60FFF769FA2046CC
:1010D80000222021FFF790FB4FF4FA60FFF760FA37
:1010E800ECE700BF00380240000002400000211079
:1010F800000802402C0000200044004082B00D4B44
:10110800002100915A6C42F480425A645A6C02F4ED
:1011180080420092009A01911A6C42F080521A643F
:101128001B6C03F080530193019B072002B0FFF76B
:101138004BBA00BF0038024010B5044688B01422EC
:10114800002103A800F0AEF82268154B9A4224D17A
:1011580003F5FA33002101911A6C124842F4003267
:101168001A641A6C02F400320192019A02911A6B05
:1011780042F001021A631B6B03F001030293029B06
:101188000C2202230121CDE903230323CDE9051312
:10119800072303A90793FFF773FA08B010BD00BF30
:1011A80000440040000002407047FEE7FEE7FEE70B
:1011B800FEE7704770477047FFF7E0B90F49D1F86D
:1011C800883043F47003C1F888300D4B1A6800204A
:1011D80042F001021A6098601A6822F0847222F4C0
:1011E80080321A60074A5A601A6822F480221A600C
:1011F800D8604FF000638B60704700BF00ED00E0DF
:101208000038024010300024DFF834D0002103E019
:101218000C4B5B58435004310B480C4B42189A4214
:10122800F6D30B4A02E0002342F8043B094B9A42EA
:10123800F9D3FFF7C3FF00F011F8FFF7DFFE70479F
:1012480000800020FC120008000000200C00002094
:101258000C0000206C000020FEE7000070B50D4E69
:101268000D4CA41BA4100025A54209D10B4E0C4C13
:1012780000F020F8A41BA4100025A54205D170BDDC
:1012880056F8253098470135EEE756F82530984747
:101298000135F2E7F4120008F4120008F41200080D
:1012A800F812000802440346934200D1704703F83D
:1012B800011BF9E7F8B500BFF8BC08BC9E467047AB
:0C12C800F8B500BFF8BC08BC9E4670479B
:1012D40000000000000000000102030406070809E2
:0812E4000000000001020304F8
:0812EC004CEFFF7F0100000040
:0412F400ED01000800
:0412F800C901000820
:0C12FC0001000000100000000024F400BD
:0400000508001211CC
:00000001FF
